:1000000023C03DC03CC03BC03AC098C038C037C0D8
:1000100036C035C034C033C032C031C030C000003B
:100020000000370000000000380002020202020255
:10003000020202020102040810202004100801023A
:10004000000004000000000011241FBECFE5D2E034
:10005000DEBFCDBF10E0A0E6B0E0EEE2F3E002C00C
:1000600005900D92A436B107D9F720E0A4E6B0E0E0
:1000700001C01D92AF36B207E1F7AAD056C1C0CF7A
:1000800090E0FC01E25CFF4F3491FC01EC5CFF4F1F
:100090002491FC01E65DFF4FE491EE23B9F0332398
:1000A00029F0323001F198F43130C9F0F0E0EE0F70
:1000B000FF1FEC5DFF4FA591B4918FB7F894EC91C1
:1000C000611114C020952E232C938FBF08953330D7
:1000D00011F0343059F78CB58F7D8CBDE7CF8AB5E0
:1000E0008F778ABDE3CF8AB58F7DFBCF2E2BECCFE8
:1000F0003FB7F89480916B0090916C00A0916D00D7
:10010000B0916E0022B708B601FE05C02F3F19F06E
:100110000196A11DB11D3FBFBA2FA92F982F882787
:10012000BC01CD01620F711D811D911D43E0660F61
:10013000771F881F991F4A95D1F708951F920F9234
:100140000FB60F9211242F933F938F939F93AF93EA
:10015000BF938091670090916800A0916900B09171
:100160006A003091660026E0230F2D3758F502967D
:10017000A11DB11D209366008093670090936800D5
:10018000A0936900B0936A0080916B0090916C001D
:10019000A0916D00B0916E000196A11DB11D8093DC
:1001A0006B0090936C00A0936D00B0936E00BF91B4
:1001B000AF919F918F913F912F910F900FBE0F9014
:1001C0001F90189529E8230F0396A11DB11DD2CFCA
:1001D00078948AB582608ABD8AB581608ABD83B70A
:1001E000826083BF83B7816083BF89B7826089BF24
:1001F00080B7826080BF80B7816080BF329A319AB9
:100200003098379A8CB580648CBDA0E6B0E024E6C7
:1002100030E08D9190E0FC01EC5CFF4F4491865DF5
:100220009F4FFC018491882399F090E0880F991FDB
:10023000FC01E25EFF4FC591D491FC01EC5DFF4FE4
:10024000859194918FB7F894E881E42BE8838FBF70
:100250002A173B07F1F604E010E090E0E92E90E069
:10026000F92EC0916400D0916500FE01E05AFF4F65
:10027000D08061E08D2D04DF3BDF2B013C018AEF54
:10028000882E912CA12CB12C33DF641975098609B5
:100290009709683E734081059105B0F3F1E08F1A2C
:1002A0009108A108B10828EE420E23E0521E611CFD
:1002B000711C81149104A104B10431F760E08D2D0B
:1002C000DFDECE010196B80109D0909365008093DE
:1002D0006400E114F10429F293DEC3CF97FB072EEB
:1002E00016F4009406D077FD08D00BD007FC05D09B
:1002F0003EF4909581959F4F0895709561957F4F3D
:100300000895AA1BBB1B51E107C0AA1FBB1FA6175C
:10031000B70710F0A61BB70B881F991F5A95A9F7AE
:0E03200080959095BC01CD010895F894FFCF13
:04032E0000010203C5
:00000001FF