:100000000C9483000C94B4000C94B4000C94B400D1
:100010000C94B4000C94B4000C94B4000C94B40090
:100020000C94B4000C94B4000C94B4000C94B40080
:100030000C94B4000C94B4000C94B4000C94B40070
:100040000C94B4000C94B4000C94B4000C94B40060
:100050000C94B4000C94B4000C94B4000C945A02A8
:100060000C94B4000C94CA030C94A0030C94B40038
:100070000C94B4000C94B4000C94B4000C94B40030
:100080000C94B4000C94B4000C94B4000C94B40020
:100090000C9476030C944C030C94B4000C94B400B0
:1000A0000C94B4000C94B4000C94B4000C94B40000
:1000B0000C94B4000C94B4000C94B4000C94B400F0
:1000C0000C94B4000C94B4000C94B4000C9422036F
:1000D0000C94F8020C94B4000C94CE020C94A4027C
:1000E0000C94B4000C94F4030C9423010C94AA0116
:1000F0000C9446010C94DD000C94F7010C9454010F
:100100000C943201F40311241FBECFEFD1E2DEBF05
:10011000CDBF00E00CBF12E0A0E0B2E0E0E7FAE003
:1001200000E00BBF02C007900D92A632B107D9F7CD
:1001300024E0A6E2B2E001C01D92A33AB207E1F7C3
:1001400010E0C3E8D0E000E006C021970109802F4D
:10015000FE010E942E05C238D10780E00807A9F7EA
:100160000E9493040C9436050C940000FC01A089B5
:10017000B18982E08C93A485B5851C92A685B7854C
:1001800080E18C93108EA489B58986E08C93A28936
:10019000B3898C9180618C93A289B3898C9188609A
:1001A0008C93A289B3898C9180688C930288F3899F
:1001B000E02D80818F7D80830895AF92BF92CF9292
:1001C000DF92EF92FF920F931F93CF93DF936C0117
:1001D0007B018B01040F151FEB015E01AE18BF08F8
:1001E000C017D10759F06991D601ED91FC910190AA
:1001F000F081E02DC6011995892B79F7C501DF91B2
:10020000CF911F910F91FF90EF90DF90CF90BF9013
:10021000AF900895FC01A089B1898C91A689B78916
:1002200082FD0FC09C91818D8F5F8F73228D82170D
:1002300049F0A18DAE0FBF2FB11D5D969C93818FAC
:1002400008958C910895FC01538D448D252F30E045
:10025000842F90E0821B930B541710F0CF960895D3
:1002600001970895FC01918D828D981761F0A28D00
:10027000AE0FBF2FB11D5D968C91928D9F5F9F73C6
:10028000928F90E008958FEF9FEF0895FC01918D7C
:10029000828D981731F0828DE80FF11D858D90E0E9
:1002A00008958FEF9FEF0895FC01918D228D892F86
:1002B00090E0805C9F4F821B91098F73992708956E
:1002C0008FE292E00E94540121E0892B09F420E0A2
:1002D000822F08958CEC92E00E94540121E0892B3A
:1002E00009F420E0822F089589E693E00E945401EA
:1002F00021E0892B09F420E0822F089586E094E024
:100300000E94540121E0892B09F420E0822F0895F6
:10031000FC01A48DA80FB92FB11DA35ABF4F2C917A
:10032000848D90E001968F739927848FA689B78971
:100330002C93A089B1898C91837080648C93938D68
:10034000848D981306C00288F389E02D80818F7D0B
:1003500080830895EF92FF920F931F93CF93DF93C3
:10036000EC0181E0888F9B8D8C8D98131AC0E889F1
:10037000F989808185FF15C09FB7F894EE89FF89C0
:100380006083E889F98980818370806480839FBF5E
:1003900081E090E0DF91CF911F910F91FF90EF905E
:1003A0000895F62E0B8D10E00F5F1F4F0F7311276E
:1003B000E02E8C8D8E110CC00FB607FCFACFE889A9
:1003C000F989808185FFF5CFCE010E948801F1CFA8
:1003D000EB8DEC0FFD2FF11DE35AFF4FF0829FB71D
:1003E000F8940B8FEA89FB8980818062CFCFCF930D
:1003F000DF93EC01888D8823B9F0AA89BB89E8894D
:10040000F9898C9185FD03C0808186FD0DC00FB6F2
:1004100007FCF7CF8C9185FFF2CF808185FFEDCF70
:10042000CE010E948801E9CFDF91CF91089580E04D
:1004300090E0892B29F00E947E0181110E9400002A
:1004400080E090E0892B29F00E94740181110E94C4
:10045000000080E090E0892B29F00E946A01811160
:100460000E94000080E090E0892B29F00E9460014A
:1004700081110C94000008950F931F93CF93DF9385
:10048000EC01FB0101900020E9F73197AF01461B19
:10049000570B0E94DD008C0142E050E062E172E007
:1004A000CE010E94DD00800F911FDF91CF911F913F
:1004B0000F9108951F920F920FB60F9211242F9350
:1004C0003F938F939F93AF93BF9380912B02909113
:1004D0002C02A0912D02B0912E0230912A0223E02D
:1004E000230F2D3758F50196A11DB11D20932A0227
:1004F00080932B0290932C02A0932D02B0932E0296
:100500008091260290912702A0912802B0912902A1
:100510000196A11DB11D8093260290932702A093FE
:100520002802B0932902BF91AF919F918F913F9183
:100530002F910F900FBE0F901F90189526E8230F54
:100540000296A11DB11DD2CF1F920F920FB60F922E
:1005500011240BB60F922F933F934F935F936F939A
:100560007F938F939F93AF93BF93EF93FF938FE20C
:1005700092E00E948801FF91EF91BF91AF919F910E
:100580008F917F916F915F914F913F912F910F903C
:100590000BBE0F900FBE0F901F9018951F920F92D9
:1005A0000FB60F9211240BB60F922F933F934F93D8
:1005B0005F936F937F938F939F93AF93BF93EF93CB
:1005C000FF938FE292E00E940A01FF91EF91BF91A9
:1005D000AF919F918F917F916F915F914F913F91DB
:1005E0002F910F900BBE0F900FBE0F901F9018957C
:1005F0001F920F920FB60F9211240BB60F922F93EA
:100600003F934F935F936F937F938F939F93AF939A
:10061000BF93EF93FF938CEC92E00E948801FF91CF
:10062000EF91BF91AF919F918F917F916F915F916A
:100630004F913F912F910F900BBE0F900FBE0F90D7
:100640001F9018951F920F920FB60F9211240BB6A0
:100650000F922F933F934F935F936F937F938F935B
:100660009F93AF93BF93EF93FF938CEC92E00E9424
:100670000A01FF91EF91BF91AF919F918F917F916F
:100680006F915F914F913F912F910F900BBE0F9003
:100690000FBE0F901F9018951F920F920FB60F92DA
:1006A00011240BB60F922F933F934F935F936F9349
:1006B0007F938F939F93AF93BF93EF93FF9389E6BD
:1006C00093E00E948801FF91EF91BF91AF919F91BC
:1006D0008F917F916F915F914F913F912F910F90EB
:1006E0000BBE0F900FBE0F901F9018951F920F9288
:1006F0000FB60F9211240BB60F922F933F934F9387
:100700005F936F937F938F939F93AF93BF93EF9379
:10071000FF9389E693E00E940A01FF91EF91BF9158
:10072000AF919F918F917F916F915F914F913F9189
:100730002F910F900BBE0F900FBE0F901F9018952A
:100740001F920F920FB60F9211240BB60F922F9398
:100750003F934F935F936F937F938F939F93AF9349
:10076000BF93EF93FF9386E094E00E948801FF918E
:10077000EF91BF91AF919F918F917F916F915F9119
:100780004F913F912F910F900BBE0F900FBE0F9086
:100790001F9018951F920F920FB60F9211240BB64F
:1007A0000F922F933F934F935F936F937F938F930A
:1007B0009F93AF93BF93EF93FF9386E094E00E94E3
:1007C0000A01FF91EF91BF91AF919F918F917F911E
:1007D0006F915F914F913F912F910F900BBE0F90B2
:1007E0000FBE0F901F901895EFE2F2E01382128275
:1007F00048EE53E060E070E044835583668377837E
:1008000084E092E09183808325E331E0358724877B
:1008100024E331E03787268720E331E0318B208BDA
:1008200021E331E0338B228B22E331E0358B248BC3
:1008300026E331E0378B268B118E128E138E148EA9
:10084000ECECF2E013821282448355836683778353
:100850009183808325ED30E03587248724ED30E0D7
:100860003787268720ED30E0318B208B21ED30E07B
:10087000338B228B22ED30E0358B248B26ED30E05C
:10088000378B268B118E128E138E148EE9E6F3E0D1
:100890001382128244835583668377839183808396
:1008A0002DEC30E0358724872CEC30E03787268725
:1008B00028EC30E0318B208B29EC30E0338B228B1D
:1008C0002AEC30E0358B248B2EEC30E0378B268BF6
:1008D000118E128E138E148EE6E0F4E013821282D3
:1008E00044835583668377839183808385EC90E08E
:1008F0009587848784EC90E09787868780EC90E0EA
:10090000918B808B81EC90E0938B828B82EC90E0DA
:10091000958B848B86EC90E0978B868B118E128E54
:10092000138E148E0895789484B5826084BD84B546
:10093000816084BD85B5826085BD85B5816085BDDA
:1009400080916E00816080936E0010928100809192
:10095000810082608093810080918100816080931A
:100960008100809180008160809380008091B1003F
:1009700084608093B1008091B00081608093B0006A
:1009800080919100826080939100809191008160BC
:10099000809391008091900081608093900080917D
:1009A000A10082608093A1008091A100816080936A
:1009B000A1008091A00081608093A000809121011E
:1009C00082608093210180912101816080932101C7
:1009D0008091200181608093200180917A00846061
:1009E00080937A0080917A00826080937A0080916F
:1009F0007A00816080937A0080917A008068809389
:100A00007A001092C10086E094E00E94B60065E191
:100A100072E086E094E00E943C0289E693E00E9446
:100A2000B60069E172E089E693E00E943C028CEC3A
:100A300092E00E94B6006DE172E08CEC92E00E94C0
:100A40003C028FE292E00E94B60061E272E08FE227
:100A500092E00E943C020E941702FDCFEE0FFF1FA2
:100A6000881F8BBF0790F691E02D1994F894FFCF63
:100A700000000000AA01DD002301F701540132014A
:100A800046010D0A00636830006368310063683214
:060A900000636833000062
:00000001FF